:020000040000FA
:02000000822854
:08000800080083161C141A08FD
:1000100083169B0A7D28A301A200FF30A207031CC0
:10002000A307031C7D280330A100E63019200D280A
:10003000A101FC3EA000A109031C2428FF30000000
:10004000A00703181F28A0076400A10F1E2808009E
:10005000013EA7000A30A200A3014B20A70B2D28C8
:1000600024080800A20001303B28A20006303B28EB
:10007000A20004303B28A80023082102031D4228C7
:100080002208200204300318013003190230280529
:10009000031DFF307D28A501A4011030A600210D0D
:1000A000A40DA50D2208A4022308031C230FA502FA
:1000B000031861282208A40723080318230FA507A3
:1000C0000310A00DA10DA60B4F2820087D2810308D
:1000D000A800A101A001A70CA60C031C75282208EA
:1000E000A00723080318230FA107A10CA00CA50C3F
:1000F000A40CA80B6B2824087D28831303138312F8
:100100006400080083161030850086017830810075
:100110008312A0308B000130A300F4300C20C0010A
:10012000C10181018B1797288B1B0800B3299420EC
:100130000430C20094200310420CBE00BF014008EE
:10014000A0004108A1003E08A2003F08A3004B20E8
:10015000BE002108BF003E08A6003F08A7003C30B3
:10016000A200A3016720BC002508BD0094203C0824
:10017000A0003D08A1002730A30010303820031D47
:10018000D12894203C08A0003D08A1000A30A2001C
:10019000A3014B20BC002108BD00942049149420E9
:1001A000D42894204910942094203C08A0003D08B5
:1001B000A10003302820C7009420470883169B0025
:1001C00083120520C300942064004918EB287F3077
:1001D0004306FF3AC30094203C08A0003D08A1005C
:1001E00002302820C7009420470883169B00831202
:1001F0000520C40094203C08A0003D08A100273041
:10020000A3000F303520031D092994208030C40736
:10021000942094206400491C11297F304406FF3A41
:10022000C40094203C08A0003D08A1000130282013
:10023000C7009420470883169B0083120520C50041
:1002400094203C08A0003D08A10000302820C700F1
:100250009420470883169B0083120520C600942033
:10026000C8016400543048020318872994203C08D0
:10027000A0003D08A1000330A300E8303820031D92
:100280004B2994200F308500942043088600942049
:100290000E30850094209420962194203C08A000E4
:1002A0003D08A100A30164303820031D612994207A
:1002B0000F30850094204408860094200D3085007E
:1002C00094209420962194203C08A0003D08A10091
:1002D000A3010A303820031D772994200F308500B0
:1002E00094204508860094200B30850094209420AB
:1002F000962194200F308500942046088600942093
:1003000007308500942096219420C80F312994202D
:1003100001083A07C0003B080318013EC1009420C1
:10032000BA01BB01942081019420972894200130C8
:10033000B800B9013808A0003908A1000130A300B5
:1003400033303220031DAA2900009420B80A031973
:10035000B90F9A2900000000000000000000000012
:100360000000942008000030BA0701300318013E55
:08037000BB070B11810109001C
:02400E006D3F04
:104200003F0006005B004F0066006D007D00070068
:044210007F006F00BC
:00000001FF
